{
  "_format": "hh-sol-artifact-1",
  "contractName": "WheelBet",
  "sourceName": "contracts/WheelBet.sol",
  "abi": [
    {
      "anonymous": false,
      "inputs": [
        {
          "indexed": true,
          "internalType": "string",
          "name": "playerName",
          "type": "string"
        },
        {
          "indexed": false,
          "internalType": "uint256",
          "name": "number",
          "type": "uint256"
        },
        {
          "indexed": false,
          "internalType": "uint256",
          "name": "amount",
          "type": "uint256"
        }
      ],
      "name": "BetPlaced",
      "type": "event"
    },
    {
      "anonymous": false,
      "inputs": [
        {
          "indexed": true,
          "internalType": "string",
          "name": "winner",
          "type": "string"
        }
      ],
      "name": "GameEnded",
      "type": "event"
    },
    {
      "anonymous": false,
      "inputs": [],
      "name": "GameReset",
      "type": "event"
    },
    {
      "anonymous": false,
      "inputs": [
        {
          "indexed": true,
          "internalType": "string",
          "name": "winner",
          "type": "string"
        },
        {
          "indexed": false,
          "internalType": "uint256",
          "name": "winnings",
          "type": "uint256"
        }
      ],
      "name": "GameWon",
      "type": "event"
    },
    {
      "anonymous": false,
      "inputs": [
        {
          "indexed": true,
          "internalType": "string",
          "name": "player",
          "type": "string"
        }
      ],
      "name": "PlayerOut",
      "type": "event"
    },
    {
      "inputs": [],
      "name": "checkGameEnd",
      "outputs": [
        {
          "internalType": "bool",
          "name": "",
          "type": "bool"
        }
      ],
      "stateMutability": "nonpayable",
      "type": "function"
    },
    {
      "inputs": [
        {
          "internalType": "string",
          "name": "_name",
          "type": "string"
        },
        {
          "internalType": "uint256",
          "name": "_number",
          "type": "uint256"
        },
        {
          "internalType": "uint256",
          "name": "_amount",
          "type": "uint256"
        }
      ],
      "name": "placeBet",
      "outputs": [],
      "stateMutability": "nonpayable",
      "type": "function"
    },
    {
      "inputs": [
        {
          "internalType": "uint256",
          "name": "",
          "type": "uint256"
        }
      ],
      "name": "playerList",
      "outputs": [
        {
          "internalType": "string",
          "name": "",
          "type": "string"
        }
      ],
      "stateMutability": "view",
      "type": "function"
    },
    {
      "inputs": [
        {
          "internalType": "string",
          "name": "",
          "type": "string"
        }
      ],
      "name": "players",
      "outputs": [
        {
          "internalType": "string",
          "name": "name",
          "type": "string"
        },
        {
          "internalType": "uint256",
          "name": "balance",
          "type": "uint256"
        },
        {
          "internalType": "bool",
          "name": "isActive",
          "type": "bool"
        }
      ],
      "stateMutability": "view",
      "type": "function"
    },
    {
      "inputs": [
        {
          "internalType": "string",
          "name": "_name",
          "type": "string"
        },
        {
          "internalType": "uint256",
          "name": "_initialBalance",
          "type": "uint256"
        }
      ],
      "name": "register",
      "outputs": [],
      "stateMutability": "nonpayable",
      "type": "function"
    },
    {
      "inputs": [
        {
          "internalType": "string",
          "name": "_player",
          "type": "string"
        }
      ],
      "name": "removePlayer",
      "outputs": [],
      "stateMutability": "nonpayable",
      "type": "function"
    },
    {
      "inputs": [],
      "name": "resetGame",
      "outputs": [],
      "stateMutability": "nonpayable",
      "type": "function"
    },
    {
      "inputs": [
        {
          "internalType": "string",
          "name": "_winner",
          "type": "string"
        },
        {
          "internalType": "uint256",
          "name": "_winnings",
          "type": "uint256"
        }
      ],
      "name": "updateWinner",
      "outputs": [],
      "stateMutability": "nonpayable",
      "type": "function"
    }
  ],
  "bytecode": "0x6080604052348015600f57600080fd5b506115c98061001f6000396000f3fe608060405234801561001057600080fd5b50600436106100885760003560e01c8063bb4722191161005b578063bb47221914610129578063e7b1797514610133578063ea87152b1461014f578063ebc0b8a81461016b57610088565b80637f9fdf4a1461008d578063a1925d02146100ab578063a98b4e40146100dd578063ae6d9073146100f9575b600080fd5b610095610187565b6040516100a29190610a80565b60405180910390f35b6100c560048036038101906100c09190610bf5565b610316565b6040516100d493929190610cd6565b60405180910390f35b6100f760048036038101906100f29190610bf5565b6103eb565b005b610113600480360381019061010e9190610d40565b6104d7565b6040516101209190610d6d565b60405180910390f35b610131610583565b005b61014d60048036038101906101489190610d8f565b610647565b005b61016960048036038101906101649190610dfe565b6107a5565b005b61018560048036038101906101809190610dfe565b6108cc565b005b60008060009050606060005b6001805490508110156102b6576000600182815481106101b6576101b5610e5a565b5b906000526020600020016040516101cd9190610f8c565b908152602001604051809103902060020160009054906101000a900460ff16156102a95782806101fc90610fd2565b9350506001818154811061021357610212610e5a565b5b90600052602060002001805461022890610eb8565b80601f016020809104026020016040519081016040528092919081815260200182805461025490610eb8565b80156102a15780601f10610276576101008083540402835291602001916102a1565b820191906000526020600020905b81548152906001019060200180831161028457829003601f168201915b505050505091505b8080600101915050610193565b506001820361030c57806040516102cd919061104b565b60405180910390207f056e3895424a85ef26c4c78d9988dea28d97c77c140b919289906403e801717060405160405180910390a2600192505050610313565b6000925050505b90565b60008180516020810182018051848252602083016020850120818352809550505050505060009150905080600001805461034f90610eb8565b80601f016020809104026020016040519081016040528092919081815260200182805461037b90610eb8565b80156103c85780601f1061039d576101008083540402835291602001916103c8565b820191906000526020600020905b8154815290600101906020018083116103ab57829003601f168201915b5050505050908060010154908060020160009054906101000a900460ff16905083565b6000816040516103fb919061104b565b908152602001604051809103902060020160009054906101000a900460ff16610459576040517f08c379a0000000000000000000000000000000000000000000000000000000008152600401610450906110ae565b60405180910390fd5b6000808260405161046a919061104b565b908152602001604051809103902060020160006101000a81548160ff021916908315150217905550806040516104a0919061104b565b60405180910390207f056d77ca2294a74ce07e2c5d31c6a34fe991ea7ead4b42ce44b27e7d641e600660405160405180910390a250565b600181815481106104e757600080fd5b90600052602060002001600091509050805461050290610eb8565b80601f016020809104026020016040519081016040528092919081815260200182805461052e90610eb8565b801561057b5780601f106105505761010080835404028352916020019161057b565b820191906000526020600020905b81548152906001019060200180831161055e57829003601f168201915b505050505081565b60005b60018054905081101561060a576000600182815481106105a9576105a8610e5a565b5b906000526020600020016040516105c09190610f8c565b9081526020016040518091039020600080820160006105df91906109c3565b60018201600090556002820160006101000a81549060ff021916905550508080600101915050610586565b50600160006106199190610a03565b7fc6976b6410888b44c765590c8368eb4a60e0431d4ad683c8a53ea85a8479f22e60405160405180910390a1565b600083604051610657919061104b565b908152602001604051809103902060020160009054906101000a900460ff166106b5576040517f08c379a00000000000000000000000000000000000000000000000000000000081526004016106ac9061111a565b60405180910390fd5b806000846040516106c6919061104b565b9081526020016040518091039020600101541015610719576040517f08c379a000000000000000000000000000000000000000000000000000000000815260040161071090611186565b60405180910390fd5b8060008460405161072a919061104b565b9081526020016040518091039020600101600082825461074a91906111a6565b925050819055508260405161075f919061104b565b60405180910390207f85b0ee3049ace693bb9ec1c8aaa6b7dc0991fa2664c141afbd803e6c9bedb4cc83836040516107989291906111da565b60405180910390a2505050565b600080836040516107b6919061104b565b908152602001604051809103902060000180546107d290610eb8565b905014610814576040517f08c379a000000000000000000000000000000000000000000000000000000000815260040161080b9061124f565b60405180910390fd5b604051806060016040528083815260200182815260200160011515815250600083604051610842919061104b565b908152602001604051809103902060008201518160000190816108659190611406565b506020820151816001015560408201518160020160006101000a81548160ff0219169083151502179055509050506001829080600181540180825580915050600190039060005260206000200160009091909190915090816108c79190611406565b505050565b6000826040516108dc919061104b565b908152602001604051809103902060020160009054906101000a900460ff1661093a576040517f08c379a000000000000000000000000000000000000000000000000000000000815260040161093190611524565b60405180910390fd5b8060008360405161094b919061104b565b9081526020016040518091039020600101600082825461096b9190611544565b9250508190555081604051610980919061104b565b60405180910390207ff5f7ab449a7960b8565c00bd47bc1577d3da01a318ef72cbec930e65e51c2c7e826040516109b79190611578565b60405180910390a25050565b5080546109cf90610eb8565b6000825580601f106109e15750610a00565b601f0160209004906000526020600020908101906109ff9190610a24565b5b50565b5080546000825590600052602060002090810190610a219190610a41565b50565b5b80821115610a3d576000816000905550600101610a25565b5090565b5b80821115610a615760008181610a5891906109c3565b50600101610a42565b5090565b60008115159050919050565b610a7a81610a65565b82525050565b6000602082019050610a956000830184610a71565b92915050565b6000604051905090565b600080fd5b600080fd5b600080fd5b600080fd5b6000601f19601f8301169050919050565b7f4e487b7100000000000000000000000000000000000000000000000000000000600052604160045260246000fd5b610b0282610ab9565b810181811067ffffffffffffffff82111715610b2157610b20610aca565b5b80604052505050565b6000610b34610a9b565b9050610b408282610af9565b919050565b600067ffffffffffffffff821115610b6057610b5f610aca565b5b610b6982610ab9565b9050602081019050919050565b82818337600083830152505050565b6000610b98610b9384610b45565b610b2a565b905082815260208101848484011115610bb457610bb3610ab4565b5b610bbf848285610b76565b509392505050565b600082601f830112610bdc57610bdb610aaf565b5b8135610bec848260208601610b85565b91505092915050565b600060208284031215610c0b57610c0a610aa5565b5b600082013567ffffffffffffffff811115610c2957610c28610aaa565b5b610c3584828501610bc7565b91505092915050565b600081519050919050565b600082825260208201905092915050565b60005b83811015610c78578082015181840152602081019050610c5d565b60008484015250505050565b6000610c8f82610c3e565b610c998185610c49565b9350610ca9818560208601610c5a565b610cb281610ab9565b840191505092915050565b6000819050919050565b610cd081610cbd565b82525050565b60006060820190508181036000830152610cf08186610c84565b9050610cff6020830185610cc7565b610d0c6040830184610a71565b949350505050565b610d1d81610cbd565b8114610d2857600080fd5b50565b600081359050610d3a81610d14565b92915050565b600060208284031215610d5657610d55610aa5565b5b6000610d6484828501610d2b565b91505092915050565b60006020820190508181036000830152610d878184610c84565b905092915050565b600080600060608486031215610da857610da7610aa5565b5b600084013567ffffffffffffffff811115610dc657610dc5610aaa565b5b610dd286828701610bc7565b9350506020610de386828701610d2b565b9250506040610df486828701610d2b565b9150509250925092565b60008060408385031215610e1557610e14610aa5565b5b600083013567ffffffffffffffff811115610e3357610e32610aaa565b5b610e3f85828601610bc7565b9250506020610e5085828601610d2b565b9150509250929050565b7f4e487b7100000000000000000000000000000000000000000000000000000000600052603260045260246000fd5b7f4e487b7100000000000000000000000000000000000000000000000000000000600052602260045260246000fd5b60006002820490506001821680610ed057607f821691505b602082108103610ee357610ee2610e89565b5b50919050565b600081905092915050565b60008190508160005260206000209050919050565b60008154610f1681610eb8565b610f208186610ee9565b94506001821660008114610f3b5760018114610f5057610f83565b60ff1983168652811515820286019350610f83565b610f5985610ef4565b60005b83811015610f7b57815481890152600182019150602081019050610f5c565b838801955050505b50505092915050565b6000610f988284610f09565b915081905092915050565b7f4e487b7100000000000000000000000000000000000000000000000000000000600052601160045260246000fd5b6000610fdd82610cbd565b91507fffffffffffffffffffffffffffffffffffffffffffffffffffffffffffffffff820361100f5761100e610fa3565b5b600182019050919050565b600061102582610c3e565b61102f8185610ee9565b935061103f818560208601610c5a565b80840191505092915050565b6000611057828461101a565b915081905092915050565b7f506c6179657220616c72656164792072656d6f76656400000000000000000000600082015250565b6000611098601683610c49565b91506110a382611062565b602082019050919050565b600060208201905081810360008301526110c78161108b565b9050919050565b7f506c61796572206973206e6f7420616374697665000000000000000000000000600082015250565b6000611104601483610c49565b915061110f826110ce565b602082019050919050565b60006020820190508181036000830152611133816110f7565b9050919050565b7f4e6f7420656e6f7567682062616c616e63650000000000000000000000000000600082015250565b6000611170601283610c49565b915061117b8261113a565b602082019050919050565b6000602082019050818103600083015261119f81611163565b9050919050565b60006111b182610cbd565b91506111bc83610cbd565b92508282039050818111156111d4576111d3610fa3565b5b92915050565b60006040820190506111ef6000830185610cc7565b6111fc6020830184610cc7565b9392505050565b7f506c6179657220616c7265616479207265676973746572656400000000000000600082015250565b6000611239601983610c49565b915061124482611203565b602082019050919050565b600060208201905081810360008301526112688161122c565b9050919050565b60006020601f8301049050919050565b600082821b905092915050565b6000600883026112bc7fffffffffffffffffffffffffffffffffffffffffffffffffffffffffffffffff8261127f565b6112c6868361127f565b95508019841693508086168417925050509392505050565b6000819050919050565b60006113036112fe6112f984610cbd565b6112de565b610cbd565b9050919050565b6000819050919050565b61131d836112e8565b6113316113298261130a565b84845461128c565b825550505050565b600090565b611346611339565b611351818484611314565b505050565b5b818110156113755761136a60008261133e565b600181019050611357565b5050565b601f8211156113ba5761138b81610ef4565b6113948461126f565b810160208510156113a3578190505b6113b76113af8561126f565b830182611356565b50505b505050565b600082821c905092915050565b60006113dd600019846008026113bf565b1980831691505092915050565b60006113f683836113cc565b9150826002028217905092915050565b61140f82610c3e565b67ffffffffffffffff81111561142857611427610aca565b5b6114328254610eb8565b61143d828285611379565b600060209050601f831160018114611470576000841561145e578287015190505b61146885826113ea565b8655506114d0565b601f19841661147e86610ef4565b60005b828110156114a657848901518255600182019150602085019450602081019050611481565b868310156114c357848901516114bf601f8916826113cc565b8355505b6001600288020188555050505b505050505050565b7f57696e6e6572206973206e6f7420616374697665000000000000000000000000600082015250565b600061150e601483610c49565b9150611519826114d8565b602082019050919050565b6000602082019050818103600083015261153d81611501565b9050919050565b600061154f82610cbd565b915061155a83610cbd565b925082820190508082111561157257611571610fa3565b5b92915050565b600060208201905061158d6000830184610cc7565b9291505056fea264697066735822122089cf2a6c93ad78c87ce308074508fe5f9587a5b176156f8ce4137ed6e76433d764736f6c634300081a0033",
  "linkReferences": {},
  "deployedLinkReferences": {}
}