{
  "_format": "hh-sol-artifact-1",
  "contractName": "WheelBet",
  "sourceName": "contracts/WheelBet.sol",
  "abi": [
    {
      "anonymous": false,
      "inputs": [
        {
          "indexed": true,
          "internalType": "string",
          "name": "playerName",
          "type": "string"
        },
        {
          "indexed": false,
          "internalType": "uint256",
          "name": "number",
          "type": "uint256"
        },
        {
          "indexed": false,
          "internalType": "uint256",
          "name": "amount",
          "type": "uint256"
        }
      ],
      "name": "BetPlaced",
      "type": "event"
    },
    {
      "anonymous": false,
      "inputs": [
        {
          "indexed": true,
          "internalType": "string",
          "name": "winner",
          "type": "string"
        }
      ],
      "name": "GameEnded",
      "type": "event"
    },
    {
      "anonymous": false,
      "inputs": [
        {
          "indexed": true,
          "internalType": "string",
          "name": "winner",
          "type": "string"
        },
        {
          "indexed": false,
          "internalType": "uint256",
          "name": "winnings",
          "type": "uint256"
        }
      ],
      "name": "GameWon",
      "type": "event"
    },
    {
      "anonymous": false,
      "inputs": [
        {
          "indexed": true,
          "internalType": "string",
          "name": "player",
          "type": "string"
        }
      ],
      "name": "PlayerOut",
      "type": "event"
    },
    {
      "inputs": [],
      "name": "checkGameEnd",
      "outputs": [
        {
          "internalType": "bool",
          "name": "",
          "type": "bool"
        }
      ],
      "stateMutability": "nonpayable",
      "type": "function"
    },
    {
      "inputs": [
        {
          "internalType": "string",
          "name": "_name",
          "type": "string"
        },
        {
          "internalType": "uint256",
          "name": "_number",
          "type": "uint256"
        },
        {
          "internalType": "uint256",
          "name": "_amount",
          "type": "uint256"
        }
      ],
      "name": "placeBet",
      "outputs": [],
      "stateMutability": "nonpayable",
      "type": "function"
    },
    {
      "inputs": [
        {
          "internalType": "uint256",
          "name": "",
          "type": "uint256"
        }
      ],
      "name": "playerList",
      "outputs": [
        {
          "internalType": "string",
          "name": "",
          "type": "string"
        }
      ],
      "stateMutability": "view",
      "type": "function"
    },
    {
      "inputs": [
        {
          "internalType": "string",
          "name": "",
          "type": "string"
        }
      ],
      "name": "players",
      "outputs": [
        {
          "internalType": "string",
          "name": "name",
          "type": "string"
        },
        {
          "internalType": "uint256",
          "name": "balance",
          "type": "uint256"
        },
        {
          "internalType": "bool",
          "name": "isActive",
          "type": "bool"
        }
      ],
      "stateMutability": "view",
      "type": "function"
    },
    {
      "inputs": [
        {
          "internalType": "string",
          "name": "_name",
          "type": "string"
        },
        {
          "internalType": "uint256",
          "name": "_initialBalance",
          "type": "uint256"
        }
      ],
      "name": "register",
      "outputs": [],
      "stateMutability": "nonpayable",
      "type": "function"
    },
    {
      "inputs": [
        {
          "internalType": "string",
          "name": "_player",
          "type": "string"
        }
      ],
      "name": "removePlayer",
      "outputs": [],
      "stateMutability": "nonpayable",
      "type": "function"
    },
    {
      "inputs": [
        {
          "internalType": "string",
          "name": "_winner",
          "type": "string"
        },
        {
          "internalType": "uint256",
          "name": "_winnings",
          "type": "uint256"
        }
      ],
      "name": "updateWinner",
      "outputs": [],
      "stateMutability": "nonpayable",
      "type": "function"
    }
  ],
  "bytecode": "0x6080604052348015600f57600080fd5b5061144e8061001f6000396000f3fe608060405234801561001057600080fd5b506004361061007d5760003560e01c8063ae6d90731161005b578063ae6d9073146100ee578063e7b179751461011e578063ea87152b1461013a578063ebc0b8a8146101565761007d565b80637f9fdf4a14610082578063a1925d02146100a0578063a98b4e40146100d2575b600080fd5b61008a610172565b6040516100979190610905565b60405180910390f35b6100ba60048036038101906100b59190610a7a565b610301565b6040516100c993929190610b5b565b60405180910390f35b6100ec60048036038101906100e79190610a7a565b6103d6565b005b61010860048036038101906101039190610bc5565b6104c2565b6040516101159190610bf2565b60405180910390f35b61013860048036038101906101339190610c14565b61056e565b005b610154600480360381019061014f9190610c83565b6106cc565b005b610170600480360381019061016b9190610c83565b6107f3565b005b60008060009050606060005b6001805490508110156102a1576000600182815481106101a1576101a0610cdf565b5b906000526020600020016040516101b89190610e11565b908152602001604051809103902060020160009054906101000a900460ff16156102945782806101e790610e57565b935050600181815481106101fe576101fd610cdf565b5b90600052602060002001805461021390610d3d565b80601f016020809104026020016040519081016040528092919081815260200182805461023f90610d3d565b801561028c5780601f106102615761010080835404028352916020019161028c565b820191906000526020600020905b81548152906001019060200180831161026f57829003601f168201915b505050505091505b808060010191505061017e565b50600182036102f757806040516102b89190610ed0565b60405180910390207f056e3895424a85ef26c4c78d9988dea28d97c77c140b919289906403e801717060405160405180910390a26001925050506102fe565b6000925050505b90565b60008180516020810182018051848252602083016020850120818352809550505050505060009150905080600001805461033a90610d3d565b80601f016020809104026020016040519081016040528092919081815260200182805461036690610d3d565b80156103b35780601f10610388576101008083540402835291602001916103b3565b820191906000526020600020905b81548152906001019060200180831161039657829003601f168201915b5050505050908060010154908060020160009054906101000a900460ff16905083565b6000816040516103e69190610ed0565b908152602001604051809103902060020160009054906101000a900460ff16610444576040517f08c379a000000000000000000000000000000000000000000000000000000000815260040161043b90610f33565b60405180910390fd5b600080826040516104559190610ed0565b908152602001604051809103902060020160006101000a81548160ff0219169083151502179055508060405161048b9190610ed0565b60405180910390207f056d77ca2294a74ce07e2c5d31c6a34fe991ea7ead4b42ce44b27e7d641e600660405160405180910390a250565b600181815481106104d257600080fd5b9060005260206000200160009150905080546104ed90610d3d565b80601f016020809104026020016040519081016040528092919081815260200182805461051990610d3d565b80156105665780601f1061053b57610100808354040283529160200191610566565b820191906000526020600020905b81548152906001019060200180831161054957829003601f168201915b505050505081565b60008360405161057e9190610ed0565b908152602001604051809103902060020160009054906101000a900460ff166105dc576040517f08c379a00000000000000000000000000000000000000000000000000000000081526004016105d390610f9f565b60405180910390fd5b806000846040516105ed9190610ed0565b9081526020016040518091039020600101541015610640576040517f08c379a00000000000000000000000000000000000000000000000000000000081526004016106379061100b565b60405180910390fd5b806000846040516106519190610ed0565b90815260200160405180910390206001016000828254610671919061102b565b92505081905550826040516106869190610ed0565b60405180910390207f85b0ee3049ace693bb9ec1c8aaa6b7dc0991fa2664c141afbd803e6c9bedb4cc83836040516106bf92919061105f565b60405180910390a2505050565b600080836040516106dd9190610ed0565b908152602001604051809103902060000180546106f990610d3d565b90501461073b576040517f08c379a0000000000000000000000000000000000000000000000000000000008152600401610732906110d4565b60405180910390fd5b6040518060600160405280838152602001828152602001600115158152506000836040516107699190610ed0565b9081526020016040518091039020600082015181600001908161078c919061128b565b506020820151816001015560408201518160020160006101000a81548160ff0219169083151502179055509050506001829080600181540180825580915050600190039060005260206000200160009091909190915090816107ee919061128b565b505050565b6000826040516108039190610ed0565b908152602001604051809103902060020160009054906101000a900460ff16610861576040517f08c379a0000000000000000000000000000000000000000000000000000000008152600401610858906113a9565b60405180910390fd5b806000836040516108729190610ed0565b9081526020016040518091039020600101600082825461089291906113c9565b92505081905550816040516108a79190610ed0565b60405180910390207ff5f7ab449a7960b8565c00bd47bc1577d3da01a318ef72cbec930e65e51c2c7e826040516108de91906113fd565b60405180910390a25050565b60008115159050919050565b6108ff816108ea565b82525050565b600060208201905061091a60008301846108f6565b92915050565b6000604051905090565b600080fd5b600080fd5b600080fd5b600080fd5b6000601f19601f8301169050919050565b7f4e487b7100000000000000000000000000000000000000000000000000000000600052604160045260246000fd5b6109878261093e565b810181811067ffffffffffffffff821117156109a6576109a561094f565b5b80604052505050565b60006109b9610920565b90506109c5828261097e565b919050565b600067ffffffffffffffff8211156109e5576109e461094f565b5b6109ee8261093e565b9050602081019050919050565b82818337600083830152505050565b6000610a1d610a18846109ca565b6109af565b905082815260208101848484011115610a3957610a38610939565b5b610a448482856109fb565b509392505050565b600082601f830112610a6157610a60610934565b5b8135610a71848260208601610a0a565b91505092915050565b600060208284031215610a9057610a8f61092a565b5b600082013567ffffffffffffffff811115610aae57610aad61092f565b5b610aba84828501610a4c565b91505092915050565b600081519050919050565b600082825260208201905092915050565b60005b83811015610afd578082015181840152602081019050610ae2565b60008484015250505050565b6000610b1482610ac3565b610b1e8185610ace565b9350610b2e818560208601610adf565b610b378161093e565b840191505092915050565b6000819050919050565b610b5581610b42565b82525050565b60006060820190508181036000830152610b758186610b09565b9050610b846020830185610b4c565b610b9160408301846108f6565b949350505050565b610ba281610b42565b8114610bad57600080fd5b50565b600081359050610bbf81610b99565b92915050565b600060208284031215610bdb57610bda61092a565b5b6000610be984828501610bb0565b91505092915050565b60006020820190508181036000830152610c0c8184610b09565b905092915050565b600080600060608486031215610c2d57610c2c61092a565b5b600084013567ffffffffffffffff811115610c4b57610c4a61092f565b5b610c5786828701610a4c565b9350506020610c6886828701610bb0565b9250506040610c7986828701610bb0565b9150509250925092565b60008060408385031215610c9a57610c9961092a565b5b600083013567ffffffffffffffff811115610cb857610cb761092f565b5b610cc485828601610a4c565b9250506020610cd585828601610bb0565b9150509250929050565b7f4e487b7100000000000000000000000000000000000000000000000000000000600052603260045260246000fd5b7f4e487b7100000000000000000000000000000000000000000000000000000000600052602260045260246000fd5b60006002820490506001821680610d5557607f821691505b602082108103610d6857610d67610d0e565b5b50919050565b600081905092915050565b60008190508160005260206000209050919050565b60008154610d9b81610d3d565b610da58186610d6e565b94506001821660008114610dc05760018114610dd557610e08565b60ff1983168652811515820286019350610e08565b610dde85610d79565b60005b83811015610e0057815481890152600182019150602081019050610de1565b838801955050505b50505092915050565b6000610e1d8284610d8e565b915081905092915050565b7f4e487b7100000000000000000000000000000000000000000000000000000000600052601160045260246000fd5b6000610e6282610b42565b91507fffffffffffffffffffffffffffffffffffffffffffffffffffffffffffffffff8203610e9457610e93610e28565b5b600182019050919050565b6000610eaa82610ac3565b610eb48185610d6e565b9350610ec4818560208601610adf565b80840191505092915050565b6000610edc8284610e9f565b915081905092915050565b7f506c6179657220616c72656164792072656d6f76656400000000000000000000600082015250565b6000610f1d601683610ace565b9150610f2882610ee7565b602082019050919050565b60006020820190508181036000830152610f4c81610f10565b9050919050565b7f506c61796572206973206e6f7420616374697665000000000000000000000000600082015250565b6000610f89601483610ace565b9150610f9482610f53565b602082019050919050565b60006020820190508181036000830152610fb881610f7c565b9050919050565b7f4e6f7420656e6f7567682062616c616e63650000000000000000000000000000600082015250565b6000610ff5601283610ace565b915061100082610fbf565b602082019050919050565b6000602082019050818103600083015261102481610fe8565b9050919050565b600061103682610b42565b915061104183610b42565b925082820390508181111561105957611058610e28565b5b92915050565b60006040820190506110746000830185610b4c565b6110816020830184610b4c565b9392505050565b7f506c6179657220616c7265616479207265676973746572656400000000000000600082015250565b60006110be601983610ace565b91506110c982611088565b602082019050919050565b600060208201905081810360008301526110ed816110b1565b9050919050565b60006020601f8301049050919050565b600082821b905092915050565b6000600883026111417fffffffffffffffffffffffffffffffffffffffffffffffffffffffffffffffff82611104565b61114b8683611104565b95508019841693508086168417925050509392505050565b6000819050919050565b600061118861118361117e84610b42565b611163565b610b42565b9050919050565b6000819050919050565b6111a28361116d565b6111b66111ae8261118f565b848454611111565b825550505050565b600090565b6111cb6111be565b6111d6818484611199565b505050565b5b818110156111fa576111ef6000826111c3565b6001810190506111dc565b5050565b601f82111561123f5761121081610d79565b611219846110f4565b81016020851015611228578190505b61123c611234856110f4565b8301826111db565b50505b505050565b600082821c905092915050565b600061126260001984600802611244565b1980831691505092915050565b600061127b8383611251565b9150826002028217905092915050565b61129482610ac3565b67ffffffffffffffff8111156112ad576112ac61094f565b5b6112b78254610d3d565b6112c28282856111fe565b600060209050601f8311600181146112f557600084156112e3578287015190505b6112ed858261126f565b865550611355565b601f19841661130386610d79565b60005b8281101561132b57848901518255600182019150602085019450602081019050611306565b868310156113485784890151611344601f891682611251565b8355505b6001600288020188555050505b505050505050565b7f57696e6e6572206973206e6f7420616374697665000000000000000000000000600082015250565b6000611393601483610ace565b915061139e8261135d565b602082019050919050565b600060208201905081810360008301526113c281611386565b9050919050565b60006113d482610b42565b91506113df83610b42565b92508282019050808211156113f7576113f6610e28565b5b92915050565b60006020820190506114126000830184610b4c565b9291505056fea2646970667358221220c8f24d8524f4ad1adfa6e3f7bb89374d908de4ad683b13df032efcde828138aa64736f6c634300081a0033",
  "linkReferences": {},
  "deployedLinkReferences": {}
}